{
  "contracts/CryptoOcean.sol": {
    "CryptoInvest": {
      "abi": [
        {
          "anonymous": false,
          "inputs": [
            {
              "indexed": false,
              "internalType": "address",
              "name": "_from",
              "type": "address"
            },
            {
              "indexed": false,
              "internalType": "uint256",
              "name": "_amount",
              "type": "uint256"
            }
          ],
          "name": "TransferReceived",
          "type": "event"
        },
        {
          "anonymous": false,
          "inputs": [
            {
              "indexed": false,
              "internalType": "address",
              "name": "_from",
              "type": "address"
            },
            {
              "indexed": false,
              "internalType": "address",
              "name": "_destAddr",
              "type": "address"
            },
            {
              "indexed": false,
              "internalType": "uint256",
              "name": "_amount",
              "type": "uint256"
            }
          ],
          "name": "TransferSent",
          "type": "event"
        },
        {
          "inputs": [],
          "name": "Admin",
          "outputs": [
            {
              "internalType": "address",
              "name": "",
              "type": "address"
            }
          ],
          "stateMutability": "view",
          "type": "function"
        },
        {
          "inputs": [
            {
              "internalType": "address",
              "name": "addr",
              "type": "address"
            },
            {
              "internalType": "string",
              "name": "name",
              "type": "string"
            },
            {
              "internalType": "uint256",
              "name": "balance",
              "type": "uint256"
            },
            {
              "internalType": "uint256",
              "name": "idNumber",
              "type": "uint256"
            },
            {
              "internalType": "uint256",
              "name": "withdrawDate",
              "type": "uint256"
            }
          ],
          "name": "addChild",
          "outputs": [],
          "stateMutability": "nonpayable",
          "type": "function"
        },
        {
          "inputs": [
            {
              "internalType": "address",
              "name": "",
              "type": "address"
            }
          ],
          "name": "children",
          "outputs": [
            {
              "internalType": "string",
              "name": "name",
              "type": "string"
            },
            {
              "internalType": "address",
              "name": "addr",
              "type": "address"
            },
            {
              "internalType": "uint256",
              "name": "idNumber",
              "type": "uint256"
            },
            {
              "internalType": "uint256",
              "name": "balance",
              "type": "uint256"
            },
            {
              "internalType": "uint256",
              "name": "withdrawDate",
              "type": "uint256"
            }
          ],
          "stateMutability": "view",
          "type": "function"
        },
        {
          "inputs": [],
          "name": "getChildAddress",
          "outputs": [
            {
              "internalType": "address",
              "name": "",
              "type": "address"
            }
          ],
          "stateMutability": "view",
          "type": "function"
        },
        {
          "inputs": [],
          "name": "getChildBalance",
          "outputs": [
            {
              "internalType": "uint256",
              "name": "",
              "type": "uint256"
            }
          ],
          "stateMutability": "view",
          "type": "function"
        },
        {
          "inputs": [
            {
              "internalType": "uint256",
              "name": "amount",
              "type": "uint256"
            },
            {
              "internalType": "address payable",
              "name": "destAddr",
              "type": "address"
            }
          ],
          "name": "withdraw",
          "outputs": [],
          "stateMutability": "nonpayable",
          "type": "function"
        },
        {
          "stateMutability": "payable",
          "type": "receive"
        }
      ],
      "evm": {
        "bytecode": {
          "linkReferences": {},
          "object": "60806040526100126100c360201b60201c565b60015561002361011460201b60201c565b600260006101000a81548173ffffffffffffffffffffffffffffffffffffffff021916908373ffffffffffffffffffffffffffffffffffffffff16021790555061007161018560201b60201c565b600360006101000a81548173ffffffffffffffffffffffffffffffffffffffff021916908373ffffffffffffffffffffffffffffffffffffffff1602179055503480156100bd57600080fd5b50610192565b60008060008060008373ffffffffffffffffffffffffffffffffffffffff1673ffffffffffffffffffffffffffffffffffffffff168152602001908152602001600020905080600301549250505090565b60008060008060008373ffffffffffffffffffffffffffffffffffffffff1673ffffffffffffffffffffffffffffffffffffffff16815260200190815260200160002090508060010160009054906101000a900473ffffffffffffffffffffffffffffffffffffffff169250505090565b6000803390508091505090565b610e9b806101a16000396000f3fe6080604052600436106100585760003560e01c8062f714ce146100b6578063bc67682a146100df578063bcb1c3a914610108578063f0018da714610133578063fd5555d914610174578063ff1b636d1461019f576100b1565b366100b157346001600082825461006f919061071b565b925050819055507ff1b03f708b9c39f453fe3f0cef84164c7d6f7df836df0796e1e9c2bce6ee397e33346040516100a79291906107c1565b60405180910390a1005b600080fd5b3480156100c257600080fd5b506100dd60048036038101906100d89190610868565b6101ca565b005b3480156100eb57600080fd5b5061010660048036038101906101019190610a1a565b61033e565b005b34801561011457600080fd5b5061011d610492565b60405161012a9190610ab1565b60405180910390f35b34801561013f57600080fd5b5061015a60048036038101906101559190610acc565b610503565b60405161016b959493929190610b81565b60405180910390f35b34801561018057600080fd5b506101896105e1565b6040516101969190610bdb565b60405180910390f35b3480156101ab57600080fd5b506101b4610632565b6040516101c19190610ab1565b60405180910390f35b600260009054906101000a900473ffffffffffffffffffffffffffffffffffffffff1673ffffffffffffffffffffffffffffffffffffffff163373ffffffffffffffffffffffffffffffffffffffff161461025a576040517f08c379a000000000000000000000000000000000000000000000000000000000815260040161025190610c42565b60405180910390fd5b60015482111561029f576040517f08c379a000000000000000000000000000000000000000000000000000000000815260040161029690610cae565b60405180910390fd5b8073ffffffffffffffffffffffffffffffffffffffff166108fc839081150290604051600060405180830381858888f193505050501580156102e5573d6000803e3d6000fd5b5081600160008282546102f89190610cce565b925050819055507ffda3a3e0e1479b43cb1c701f7576187f4c4ad80768d627387e00184302f7d88e33828460405161033293929190610d61565b60405180910390a15050565b60008060008773ffffffffffffffffffffffffffffffffffffffff1673ffffffffffffffffffffffffffffffffffffffff1681526020019081526020016000209050600073ffffffffffffffffffffffffffffffffffffffff168160010160009054906101000a900473ffffffffffffffffffffffffffffffffffffffff1673ffffffffffffffffffffffffffffffffffffffff1614610413576040517f08c379a000000000000000000000000000000000000000000000000000000000815260040161040a90610de4565b60405180910390fd5b8381600301819055508481600001908051906020019061043492919061063f565b50858160010160006101000a81548173ffffffffffffffffffffffffffffffffffffffff021916908373ffffffffffffffffffffffffffffffffffffffff160217905550828160020181905550818160040181905550505050505050565b60008060008060008373ffffffffffffffffffffffffffffffffffffffff1673ffffffffffffffffffffffffffffffffffffffff16815260200190815260200160002090508060010160009054906101000a900473ffffffffffffffffffffffffffffffffffffffff169250505090565b600060205280600052604060002060009150905080600001805461052690610e33565b80601f016020809104026020016040519081016040528092919081815260200182805461055290610e33565b801561059f5780601f106105745761010080835404028352916020019161059f565b820191906000526020600020905b81548152906001019060200180831161058257829003601f168201915b5050505050908060010160009054906101000a900473ffffffffffffffffffffffffffffffffffffffff16908060020154908060030154908060040154905085565b60008060008060008373ffffffffffffffffffffffffffffffffffffffff1673ffffffffffffffffffffffffffffffffffffffff168152602001908152602001600020905080600301549250505090565b6000803390508091505090565b82805461064b90610e33565b90600052602060002090601f01602090048101928261066d57600085556106b4565b82601f1061068657805160ff19168380011785556106b4565b828001600101855582156106b4579182015b828111156106b3578251825591602001919060010190610698565b5b5090506106c191906106c5565b5090565b5b808211156106de5760008160009055506001016106c6565b5090565b6000819050919050565b7f4e487b7100000000000000000000000000000000000000000000000000000000600052601160045260246000fd5b6000610726826106e2565b9150610731836106e2565b9250827fffffffffffffffffffffffffffffffffffffffffffffffffffffffffffffffff03821115610766576107656106ec565b5b828201905092915050565b600073ffffffffffffffffffffffffffffffffffffffff82169050919050565b600061079c82610771565b9050919050565b6107ac81610791565b82525050565b6107bb816106e2565b82525050565b60006040820190506107d660008301856107a3565b6107e360208301846107b2565b9392505050565b6000604051905090565b600080fd5b600080fd5b610807816106e2565b811461081257600080fd5b50565b600081359050610824816107fe565b92915050565b600061083582610771565b9050919050565b6108458161082a565b811461085057600080fd5b50565b6000813590506108628161083c565b92915050565b6000806040838503121561087f5761087e6107f4565b5b600061088d85828601610815565b925050602061089e85828601610853565b9150509250929050565b6108b181610791565b81146108bc57600080fd5b50565b6000813590506108ce816108a8565b92915050565b600080fd5b600080fd5b6000601f19601f8301169050919050565b7f4e487b7100000000000000000000000000000000000000000000000000000000600052604160045260246000fd5b610927826108de565b810181811067ffffffffffffffff82111715610946576109456108ef565b5b80604052505050565b60006109596107ea565b9050610965828261091e565b919050565b600067ffffffffffffffff821115610985576109846108ef565b5b61098e826108de565b9050602081019050919050565b82818337600083830152505050565b60006109bd6109b88461096a565b61094f565b9050828152602081018484840111156109d9576109d86108d9565b5b6109e484828561099b565b509392505050565b600082601f830112610a0157610a006108d4565b5b8135610a118482602086016109aa565b91505092915050565b600080600080600060a08688031215610a3657610a356107f4565b5b6000610a44888289016108bf565b955050602086013567ffffffffffffffff811115610a6557610a646107f9565b5b610a71888289016109ec565b9450506040610a8288828901610815565b9350506060610a9388828901610815565b9250506080610aa488828901610815565b9150509295509295909350565b6000602082019050610ac660008301846107a3565b92915050565b600060208284031215610ae257610ae16107f4565b5b6000610af0848285016108bf565b91505092915050565b600081519050919050565b600082825260208201905092915050565b60005b83811015610b33578082015181840152602081019050610b18565b83811115610b42576000848401525b50505050565b6000610b5382610af9565b610b5d8185610b04565b9350610b6d818560208601610b15565b610b76816108de565b840191505092915050565b600060a0820190508181036000830152610b9b8188610b48565b9050610baa60208301876107a3565b610bb760408301866107b2565b610bc460608301856107b2565b610bd160808301846107b2565b9695505050505050565b6000602082019050610bf060008301846107b2565b92915050565b7f4f6e6c79206f776e65722063616e2077697468647261772066756e6473000000600082015250565b6000610c2c601d83610b04565b9150610c3782610bf6565b602082019050919050565b60006020820190508181036000830152610c5b81610c1f565b9050919050565b7f496e73756666696369656e742066756e64730000000000000000000000000000600082015250565b6000610c98601283610b04565b9150610ca382610c62565b602082019050919050565b60006020820190508181036000830152610cc781610c8b565b9050919050565b6000610cd9826106e2565b9150610ce4836106e2565b925082821015610cf757610cf66106ec565b5b828203905092915050565b6000819050919050565b6000610d27610d22610d1d84610771565b610d02565b610771565b9050919050565b6000610d3982610d0c565b9050919050565b6000610d4b82610d2e565b9050919050565b610d5b81610d40565b82525050565b6000606082019050610d7660008301866107a3565b610d836020830185610d52565b610d9060408301846107b2565b949350505050565b7f4164647265737320697320616c72656164792061646465642100000000000000600082015250565b6000610dce601983610b04565b9150610dd982610d98565b602082019050919050565b60006020820190508181036000830152610dfd81610dc1565b9050919050565b7f4e487b7100000000000000000000000000000000000000000000000000000000600052602260045260246000fd5b60006002820490506001821680610e4b57607f821691505b60208210811415610e5f57610e5e610e04565b5b5091905056fea2646970667358221220b3a68751b4fc1f75e2d6505b2dacb2c56346a7349ba757f5e90eeaec6751570f64736f6c63430008090033",
          "opcodes": "PUSH1 0x80 PUSH1 0x40 MSTORE PUSH2 0x12 PUSH2 0xC3 PUSH1 0x20 SHL PUSH1 0x20 SHR JUMP JUMPDEST PUSH1 0x1 SSTORE PUSH2 0x23 PUSH2 0x114 PUSH1 0x20 SHL PUSH1 0x20 SHR JUMP JUMPDEST PUSH1 0x2 PUSH1 0x0 PUSH2 0x100 EXP DUP2 SLOAD DUP2 PUSH20 0xFFFFFFFFFFFFFFFFFFFFFFFFFFFFFFFFFFFFFFFF MUL NOT AND SWAP1 DUP4 PUSH20 0xFFFFFFFFFFFFFFFFFFFFFFFFFFFFFFFFFFFFFFFF AND MUL OR SWAP1 SSTORE POP PUSH2 0x71 PUSH2 0x185 PUSH1 0x20 SHL PUSH1 0x20 SHR JUMP JUMPDEST PUSH1 0x3 PUSH1 0x0 PUSH2 0x100 EXP DUP2 SLOAD DUP2 PUSH20 0xFFFFFFFFFFFFFFFFFFFFFFFFFFFFFFFFFFFFFFFF MUL NOT AND SWAP1 DUP4 PUSH20 0xFFFFFFFFFFFFFFFFFFFFFFFFFFFFFFFFFFFFFFFF AND MUL OR SWAP1 SSTORE POP CALLVALUE DUP1 ISZERO PUSH2 0xBD JUMPI PUSH1 0x0 DUP1 REVERT JUMPDEST POP PUSH2 0x192 JUMP JUMPDEST PUSH1 0x0 DUP1 PUSH1 0x0 DUP1 PUSH1 0x0 DUP4 PUSH20 0xFFFFFFFFFFFFFFFFFFFFFFFFFFFFFFFFFFFFFFFF AND PUSH20 0xFFFFFFFFFFFFFFFFFFFFFFFFFFFFFFFFFFFFFFFF AND DUP2 MSTORE PUSH1 0x20 ADD SWAP1 DUP2 MSTORE PUSH1 0x20 ADD PUSH1 0x0 KECCAK256 SWAP1 POP DUP1 PUSH1 0x3 ADD SLOAD SWAP3 POP POP POP SWAP1 JUMP JUMPDEST PUSH1 0x0 DUP1 PUSH1 0x0 DUP1 PUSH1 0x0 DUP4 PUSH20 0xFFFFFFFFFFFFFFFFFFFFFFFFFFFFFFFFFFFFFFFF AND PUSH20 0xFFFFFFFFFFFFFFFFFFFFFFFFFFFFFFFFFFFFFFFF AND DUP2 MSTORE PUSH1 0x20 ADD SWAP1 DUP2 MSTORE PUSH1 0x20 ADD PUSH1 0x0 KECCAK256 SWAP1 POP DUP1 PUSH1 0x1 ADD PUSH1 0x0 SWAP1 SLOAD SWAP1 PUSH2 0x100 EXP SWAP1 DIV PUSH20 0xFFFFFFFFFFFFFFFFFFFFFFFFFFFFFFFFFFFFFFFF AND SWAP3 POP POP POP SWAP1 JUMP JUMPDEST PUSH1 0x0 DUP1 CALLER SWAP1 POP DUP1 SWAP2 POP POP SWAP1 JUMP JUMPDEST PUSH2 0xE9B DUP1 PUSH2 0x1A1 PUSH1 0x0 CODECOPY PUSH1 0x0 RETURN INVALID PUSH1 0x80 PUSH1 0x40 MSTORE PUSH1 0x4 CALLDATASIZE LT PUSH2 0x58 JUMPI PUSH1 0x0 CALLDATALOAD PUSH1 0xE0 SHR DUP1 PUSH3 0xF714CE EQ PUSH2 0xB6 JUMPI DUP1 PUSH4 0xBC67682A EQ PUSH2 0xDF JUMPI DUP1 PUSH4 0xBCB1C3A9 EQ PUSH2 0x108 JUMPI DUP1 PUSH4 0xF0018DA7 EQ PUSH2 0x133 JUMPI DUP1 PUSH4 0xFD5555D9 EQ PUSH2 0x174 JUMPI DUP1 PUSH4 0xFF1B636D EQ PUSH2 0x19F JUMPI PUSH2 0xB1 JUMP JUMPDEST CALLDATASIZE PUSH2 0xB1 JUMPI CALLVALUE PUSH1 0x1 PUSH1 0x0 DUP3 DUP3 SLOAD PUSH2 0x6F SWAP2 SWAP1 PUSH2 0x71B JUMP JUMPDEST SWAP3 POP POP DUP2 SWAP1 SSTORE POP PUSH32 0xF1B03F708B9C39F453FE3F0CEF84164C7D6F7DF836DF0796E1E9C2BCE6EE397E CALLER CALLVALUE PUSH1 0x40 MLOAD PUSH2 0xA7 SWAP3 SWAP2 SWAP1 PUSH2 0x7C1 JUMP JUMPDEST PUSH1 0x40 MLOAD DUP1 SWAP2 SUB SWAP1 LOG1 STOP JUMPDEST PUSH1 0x0 DUP1 REVERT JUMPDEST CALLVALUE DUP1 ISZERO PUSH2 0xC2 JUMPI PUSH1 0x0 DUP1 REVERT JUMPDEST POP PUSH2 0xDD PUSH1 0x4 DUP1 CALLDATASIZE SUB DUP2 ADD SWAP1 PUSH2 0xD8 SWAP2 SWAP1 PUSH2 0x868 JUMP JUMPDEST PUSH2 0x1CA JUMP JUMPDEST STOP JUMPDEST CALLVALUE DUP1 ISZERO PUSH2 0xEB JUMPI PUSH1 0x0 DUP1 REVERT JUMPDEST POP PUSH2 0x106 PUSH1 0x4 DUP1 CALLDATASIZE SUB DUP2 ADD SWAP1 PUSH2 0x101 SWAP2 SWAP1 PUSH2 0xA1A JUMP JUMPDEST PUSH2 0x33E JUMP JUMPDEST STOP JUMPDEST CALLVALUE DUP1 ISZERO PUSH2 0x114 JUMPI PUSH1 0x0 DUP1 REVERT JUMPDEST POP PUSH2 0x11D PUSH2 0x492 JUMP JUMPDEST PUSH1 0x40 MLOAD PUSH2 0x12A SWAP2 SWAP1 PUSH2 0xAB1 JUMP JUMPDEST PUSH1 0x40 MLOAD DUP1 SWAP2 SUB SWAP1 RETURN JUMPDEST CALLVALUE DUP1 ISZERO PUSH2 0x13F JUMPI PUSH1 0x0 DUP1 REVERT JUMPDEST POP PUSH2 0x15A PUSH1 0x4 DUP1 CALLDATASIZE SUB DUP2 ADD SWAP1 PUSH2 0x155 SWAP2 SWAP1 PUSH2 0xACC JUMP JUMPDEST PUSH2 0x503 JUMP JUMPDEST PUSH1 0x40 MLOAD PUSH2 0x16B SWAP6 SWAP5 SWAP4 SWAP3 SWAP2 SWAP1 PUSH2 0xB81 JUMP JUMPDEST PUSH1 0x40 MLOAD DUP1 SWAP2 SUB SWAP1 RETURN JUMPDEST CALLVALUE DUP1 ISZERO PUSH2 0x180 JUMPI PUSH1 0x0 DUP1 REVERT JUMPDEST POP PUSH2 0x189 PUSH2 0x5E1 JUMP JUMPDEST PUSH1 0x40 MLOAD PUSH2 0x196 SWAP2 SWAP1 PUSH2 0xBDB JUMP JUMPDEST PUSH1 0x40 MLOAD DUP1 SWAP2 SUB SWAP1 RETURN JUMPDEST CALLVALUE DUP1 ISZERO PUSH2 0x1AB JUMPI PUSH1 0x0 DUP1 REVERT JUMPDEST POP PUSH2 0x1B4 PUSH2 0x632 JUMP JUMPDEST PUSH1 0x40 MLOAD PUSH2 0x1C1 SWAP2 SWAP1 PUSH2 0xAB1 JUMP JUMPDEST PUSH1 0x40 MLOAD DUP1 SWAP2 SUB SWAP1 RETURN JUMPDEST PUSH1 0x2 PUSH1 0x0 SWAP1 SLOAD SWAP1 PUSH2 0x100 EXP SWAP1 DIV PUSH20 0xFFFFFFFFFFFFFFFFFFFFFFFFFFFFFFFFFFFFFFFF AND PUSH20 0xFFFFFFFFFFFFFFFFFFFFFFFFFFFFFFFFFFFFFFFF AND CALLER PUSH20 0xFFFFFFFFFFFFFFFFFFFFFFFFFFFFFFFFFFFFFFFF AND EQ PUSH2 0x25A JUMPI PUSH1 0x40 MLOAD PUSH32 0x8C379A000000000000000000000000000000000000000000000000000000000 DUP2 MSTORE PUSH1 0x4 ADD PUSH2 0x251 SWAP1 PUSH2 0xC42 JUMP JUMPDEST PUSH1 0x40 MLOAD DUP1 SWAP2 SUB SWAP1 REVERT JUMPDEST PUSH1 0x1 SLOAD DUP3 GT ISZERO PUSH2 0x29F JUMPI PUSH1 0x40 MLOAD PUSH32 0x8C379A000000000000000000000000000000000000000000000000000000000 DUP2 MSTORE PUSH1 0x4 ADD PUSH2 0x296 SWAP1 PUSH2 0xCAE JUMP JUMPDEST PUSH1 0x40 MLOAD DUP1 SWAP2 SUB SWAP1 REVERT JUMPDEST DUP1 PUSH20 0xFFFFFFFFFFFFFFFFFFFFFFFFFFFFFFFFFFFFFFFF AND PUSH2 0x8FC DUP4 SWAP1 DUP2 ISZERO MUL SWAP1 PUSH1 0x40 MLOAD PUSH1 0x0 PUSH1 0x40 MLOAD DUP1 DUP4 SUB DUP2 DUP6 DUP9 DUP9 CALL SWAP4 POP POP POP POP ISZERO DUP1 ISZERO PUSH2 0x2E5 JUMPI RETURNDATASIZE PUSH1 0x0 DUP1 RETURNDATACOPY RETURNDATASIZE PUSH1 0x0 REVERT JUMPDEST POP DUP2 PUSH1 0x1 PUSH1 0x0 DUP3 DUP3 SLOAD PUSH2 0x2F8 SWAP2 SWAP1 PUSH2 0xCCE JUMP JUMPDEST SWAP3 POP POP DUP2 SWAP1 SSTORE POP PUSH32 0xFDA3A3E0E1479B43CB1C701F7576187F4C4AD80768D627387E00184302F7D88E CALLER DUP3 DUP5 PUSH1 0x40 MLOAD PUSH2 0x332 SWAP4 SWAP3 SWAP2 SWAP1 PUSH2 0xD61 JUMP JUMPDEST PUSH1 0x40 MLOAD DUP1 SWAP2 SUB SWAP1 LOG1 POP POP JUMP JUMPDEST PUSH1 0x0 DUP1 PUSH1 0x0 DUP8 PUSH20 0xFFFFFFFFFFFFFFFFFFFFFFFFFFFFFFFFFFFFFFFF AND PUSH20 0xFFFFFFFFFFFFFFFFFFFFFFFFFFFFFFFFFFFFFFFF AND DUP2 MSTORE PUSH1 0x20 ADD SWAP1 DUP2 MSTORE PUSH1 0x20 ADD PUSH1 0x0 KECCAK256 SWAP1 POP PUSH1 0x0 PUSH20 0xFFFFFFFFFFFFFFFFFFFFFFFFFFFFFFFFFFFFFFFF AND DUP2 PUSH1 0x1 ADD PUSH1 0x0 SWAP1 SLOAD SWAP1 PUSH2 0x100 EXP SWAP1 DIV PUSH20 0xFFFFFFFFFFFFFFFFFFFFFFFFFFFFFFFFFFFFFFFF AND PUSH20 0xFFFFFFFFFFFFFFFFFFFFFFFFFFFFFFFFFFFFFFFF AND EQ PUSH2 0x413 JUMPI PUSH1 0x40 MLOAD PUSH32 0x8C379A000000000000000000000000000000000000000000000000000000000 DUP2 MSTORE PUSH1 0x4 ADD PUSH2 0x40A SWAP1 PUSH2 0xDE4 JUMP JUMPDEST PUSH1 0x40 MLOAD DUP1 SWAP2 SUB SWAP1 REVERT JUMPDEST DUP4 DUP2 PUSH1 0x3 ADD DUP2 SWAP1 SSTORE POP DUP5 DUP2 PUSH1 0x0 ADD SWAP1 DUP1 MLOAD SWAP1 PUSH1 0x20 ADD SWAP1 PUSH2 0x434 SWAP3 SWAP2 SWAP1 PUSH2 0x63F JUMP JUMPDEST POP DUP6 DUP2 PUSH1 0x1 ADD PUSH1 0x0 PUSH2 0x100 EXP DUP2 SLOAD DUP2 PUSH20 0xFFFFFFFFFFFFFFFFFFFFFFFFFFFFFFFFFFFFFFFF MUL NOT AND SWAP1 DUP4 PUSH20 0xFFFFFFFFFFFFFFFFFFFFFFFFFFFFFFFFFFFFFFFF AND MUL OR SWAP1 SSTORE POP DUP3 DUP2 PUSH1 0x2 ADD DUP2 SWAP1 SSTORE POP DUP2 DUP2 PUSH1 0x4 ADD DUP2 SWAP1 SSTORE POP POP POP POP POP POP POP JUMP JUMPDEST PUSH1 0x0 DUP1 PUSH1 0x0 DUP1 PUSH1 0x0 DUP4 PUSH20 0xFFFFFFFFFFFFFFFFFFFFFFFFFFFFFFFFFFFFFFFF AND PUSH20 0xFFFFFFFFFFFFFFFFFFFFFFFFFFFFFFFFFFFFFFFF AND DUP2 MSTORE PUSH1 0x20 ADD SWAP1 DUP2 MSTORE PUSH1 0x20 ADD PUSH1 0x0 KECCAK256 SWAP1 POP DUP1 PUSH1 0x1 ADD PUSH1 0x0 SWAP1 SLOAD SWAP1 PUSH2 0x100 EXP SWAP1 DIV PUSH20 0xFFFFFFFFFFFFFFFFFFFFFFFFFFFFFFFFFFFFFFFF AND SWAP3 POP POP POP SWAP1 JUMP JUMPDEST PUSH1 0x0 PUSH1 0x20 MSTORE DUP1 PUSH1 0x0 MSTORE PUSH1 0x40 PUSH1 0x0 KECCAK256 PUSH1 0x0 SWAP2 POP SWAP1 POP DUP1 PUSH1 0x0 ADD DUP1 SLOAD PUSH2 0x526 SWAP1 PUSH2 0xE33 JUMP JUMPDEST DUP1 PUSH1 0x1F ADD PUSH1 0x20 DUP1 SWAP2 DIV MUL PUSH1 0x20 ADD PUSH1 0x40 MLOAD SWAP1 DUP2 ADD PUSH1 0x40 MSTORE DUP1 SWAP3 SWAP2 SWAP1 DUP2 DUP2 MSTORE PUSH1 0x20 ADD DUP3 DUP1 SLOAD PUSH2 0x552 SWAP1 PUSH2 0xE33 JUMP JUMPDEST DUP1 ISZERO PUSH2 0x59F JUMPI DUP1 PUSH1 0x1F LT PUSH2 0x574 JUMPI PUSH2 0x100 DUP1 DUP4 SLOAD DIV MUL DUP4 MSTORE SWAP2 PUSH1 0x20 ADD SWAP2 PUSH2 0x59F JUMP JUMPDEST DUP3 ADD SWAP2 SWAP1 PUSH1 0x0 MSTORE PUSH1 0x20 PUSH1 0x0 KECCAK256 SWAP1 JUMPDEST DUP2 SLOAD DUP2 MSTORE SWAP1 PUSH1 0x1 ADD SWAP1 PUSH1 0x20 ADD DUP1 DUP4 GT PUSH2 0x582 JUMPI DUP3 SWAP1 SUB PUSH1 0x1F AND DUP3 ADD SWAP2 JUMPDEST POP POP POP POP POP SWAP1 DUP1 PUSH1 0x1 ADD PUSH1 0x0 SWAP1 SLOAD SWAP1 PUSH2 0x100 EXP SWAP1 DIV PUSH20 0xFFFFFFFFFFFFFFFFFFFFFFFFFFFFFFFFFFFFFFFF AND SWAP1 DUP1 PUSH1 0x2 ADD SLOAD SWAP1 DUP1 PUSH1 0x3 ADD SLOAD SWAP1 DUP1 PUSH1 0x4 ADD SLOAD SWAP1 POP DUP6 JUMP JUMPDEST PUSH1 0x0 DUP1 PUSH1 0x0 DUP1 PUSH1 0x0 DUP4 PUSH20 0xFFFFFFFFFFFFFFFFFFFFFFFFFFFFFFFFFFFFFFFF AND PUSH20 0xFFFFFFFFFFFFFFFFFFFFFFFFFFFFFFFFFFFFFFFF AND DUP2 MSTORE PUSH1 0x20 ADD SWAP1 DUP2 MSTORE PUSH1 0x20 ADD PUSH1 0x0 KECCAK256 SWAP1 POP DUP1 PUSH1 0x3 ADD SLOAD SWAP3 POP POP POP SWAP1 JUMP JUMPDEST PUSH1 0x0 DUP1 CALLER SWAP1 POP DUP1 SWAP2 POP POP SWAP1 JUMP JUMPDEST DUP3 DUP1 SLOAD PUSH2 0x64B SWAP1 PUSH2 0xE33 JUMP JUMPDEST SWAP1 PUSH1 0x0 MSTORE PUSH1 0x20 PUSH1 0x0 KECCAK256 SWAP1 PUSH1 0x1F ADD PUSH1 0x20 SWAP1 DIV DUP2 ADD SWAP3 DUP3 PUSH2 0x66D JUMPI PUSH1 0x0 DUP6 SSTORE PUSH2 0x6B4 JUMP JUMPDEST DUP3 PUSH1 0x1F LT PUSH2 0x686 JUMPI DUP1 MLOAD PUSH1 0xFF NOT AND DUP4 DUP1 ADD OR DUP6 SSTORE PUSH2 0x6B4 JUMP JUMPDEST DUP3 DUP1 ADD PUSH1 0x1 ADD DUP6 SSTORE DUP3 ISZERO PUSH2 0x6B4 JUMPI SWAP2 DUP3 ADD JUMPDEST DUP3 DUP2 GT ISZERO PUSH2 0x6B3 JUMPI DUP3 MLOAD DUP3 SSTORE SWAP2 PUSH1 0x20 ADD SWAP2 SWAP1 PUSH1 0x1 ADD SWAP1 PUSH2 0x698 JUMP JUMPDEST JUMPDEST POP SWAP1 POP PUSH2 0x6C1 SWAP2 SWAP1 PUSH2 0x6C5 JUMP JUMPDEST POP SWAP1 JUMP JUMPDEST JUMPDEST DUP1 DUP3 GT ISZERO PUSH2 0x6DE JUMPI PUSH1 0x0 DUP2 PUSH1 0x0 SWAP1 SSTORE POP PUSH1 0x1 ADD PUSH2 0x6C6 JUMP JUMPDEST POP SWAP1 JUMP JUMPDEST PUSH1 0x0 DUP2 SWAP1 POP SWAP2 SWAP1 POP JUMP JUMPDEST PUSH32 0x4E487B7100000000000000000000000000000000000000000000000000000000 PUSH1 0x0 MSTORE PUSH1 0x11 PUSH1 0x4 MSTORE PUSH1 0x24 PUSH1 0x0 REVERT JUMPDEST PUSH1 0x0 PUSH2 0x726 DUP3 PUSH2 0x6E2 JUMP JUMPDEST SWAP2 POP PUSH2 0x731 DUP4 PUSH2 0x6E2 JUMP JUMPDEST SWAP3 POP DUP3 PUSH32 0xFFFFFFFFFFFFFFFFFFFFFFFFFFFFFFFFFFFFFFFFFFFFFFFFFFFFFFFFFFFFFFFF SUB DUP3 GT ISZERO PUSH2 0x766 JUMPI PUSH2 0x765 PUSH2 0x6EC JUMP JUMPDEST JUMPDEST DUP3 DUP3 ADD SWAP1 POP SWAP3 SWAP2 POP POP JUMP JUMPDEST PUSH1 0x0 PUSH20 0xFFFFFFFFFFFFFFFFFFFFFFFFFFFFFFFFFFFFFFFF DUP3 AND SWAP1 POP SWAP2 SWAP1 POP JUMP JUMPDEST PUSH1 0x0 PUSH2 0x79C DUP3 PUSH2 0x771 JUMP JUMPDEST SWAP1 POP SWAP2 SWAP1 POP JUMP JUMPDEST PUSH2 0x7AC DUP2 PUSH2 0x791 JUMP JUMPDEST DUP3 MSTORE POP POP JUMP JUMPDEST PUSH2 0x7BB DUP2 PUSH2 0x6E2 JUMP JUMPDEST DUP3 MSTORE POP POP JUMP JUMPDEST PUSH1 0x0 PUSH1 0x40 DUP3 ADD SWAP1 POP PUSH2 0x7D6 PUSH1 0x0 DUP4 ADD DUP6 PUSH2 0x7A3 JUMP JUMPDEST PUSH2 0x7E3 PUSH1 0x20 DUP4 ADD DUP5 PUSH2 0x7B2 JUMP JUMPDEST SWAP4 SWAP3 POP POP POP JUMP JUMPDEST PUSH1 0x0 PUSH1 0x40 MLOAD SWAP1 POP SWAP1 JUMP JUMPDEST PUSH1 0x0 DUP1 REVERT JUMPDEST PUSH1 0x0 DUP1 REVERT JUMPDEST PUSH2 0x807 DUP2 PUSH2 0x6E2 JUMP JUMPDEST DUP2 EQ PUSH2 0x812 JUMPI PUSH1 0x0 DUP1 REVERT JUMPDEST POP JUMP JUMPDEST PUSH1 0x0 DUP2 CALLDATALOAD SWAP1 POP PUSH2 0x824 DUP2 PUSH2 0x7FE JUMP JUMPDEST SWAP3 SWAP2 POP POP JUMP JUMPDEST PUSH1 0x0 PUSH2 0x835 DUP3 PUSH2 0x771 JUMP JUMPDEST SWAP1 POP SWAP2 SWAP1 POP JUMP JUMPDEST PUSH2 0x845 DUP2 PUSH2 0x82A JUMP JUMPDEST DUP2 EQ PUSH2 0x850 JUMPI PUSH1 0x0 DUP1 REVERT JUMPDEST POP JUMP JUMPDEST PUSH1 0x0 DUP2 CALLDATALOAD SWAP1 POP PUSH2 0x862 DUP2 PUSH2 0x83C JUMP JUMPDEST SWAP3 SWAP2 POP POP JUMP JUMPDEST PUSH1 0x0 DUP1 PUSH1 0x40 DUP4 DUP6 SUB SLT ISZERO PUSH2 0x87F JUMPI PUSH2 0x87E PUSH2 0x7F4 JUMP JUMPDEST JUMPDEST PUSH1 0x0 PUSH2 0x88D DUP6 DUP3 DUP7 ADD PUSH2 0x815 JUMP JUMPDEST SWAP3 POP POP PUSH1 0x20 PUSH2 0x89E DUP6 DUP3 DUP7 ADD PUSH2 0x853 JUMP JUMPDEST SWAP2 POP POP SWAP3 POP SWAP3 SWAP1 POP JUMP JUMPDEST PUSH2 0x8B1 DUP2 PUSH2 0x791 JUMP JUMPDEST DUP2 EQ PUSH2 0x8BC JUMPI PUSH1 0x0 DUP1 REVERT JUMPDEST POP JUMP JUMPDEST PUSH1 0x0 DUP2 CALLDATALOAD SWAP1 POP PUSH2 0x8CE DUP2 PUSH2 0x8A8 JUMP JUMPDEST SWAP3 SWAP2 POP POP JUMP JUMPDEST PUSH1 0x0 DUP1 REVERT JUMPDEST PUSH1 0x0 DUP1 REVERT JUMPDEST PUSH1 0x0 PUSH1 0x1F NOT PUSH1 0x1F DUP4 ADD AND SWAP1 POP SWAP2 SWAP1 POP JUMP JUMPDEST PUSH32 0x4E487B7100000000000000000000000000000000000000000000000000000000 PUSH1 0x0 MSTORE PUSH1 0x41 PUSH1 0x4 MSTORE PUSH1 0x24 PUSH1 0x0 REVERT JUMPDEST PUSH2 0x927 DUP3 PUSH2 0x8DE JUMP JUMPDEST DUP2 ADD DUP2 DUP2 LT PUSH8 0xFFFFFFFFFFFFFFFF DUP3 GT OR ISZERO PUSH2 0x946 JUMPI PUSH2 0x945 PUSH2 0x8EF JUMP JUMPDEST JUMPDEST DUP1 PUSH1 0x40 MSTORE POP POP POP JUMP JUMPDEST PUSH1 0x0 PUSH2 0x959 PUSH2 0x7EA JUMP JUMPDEST SWAP1 POP PUSH2 0x965 DUP3 DUP3 PUSH2 0x91E JUMP JUMPDEST SWAP2 SWAP1 POP JUMP JUMPDEST PUSH1 0x0 PUSH8 0xFFFFFFFFFFFFFFFF DUP3 GT ISZERO PUSH2 0x985 JUMPI PUSH2 0x984 PUSH2 0x8EF JUMP JUMPDEST JUMPDEST PUSH2 0x98E DUP3 PUSH2 0x8DE JUMP JUMPDEST SWAP1 POP PUSH1 0x20 DUP2 ADD SWAP1 POP SWAP2 SWAP1 POP JUMP JUMPDEST DUP3 DUP2 DUP4 CALLDATACOPY PUSH1 0x0 DUP4 DUP4 ADD MSTORE POP POP POP JUMP JUMPDEST PUSH1 0x0 PUSH2 0x9BD PUSH2 0x9B8 DUP5 PUSH2 0x96A JUMP JUMPDEST PUSH2 0x94F JUMP JUMPDEST SWAP1 POP DUP3 DUP2 MSTORE PUSH1 0x20 DUP2 ADD DUP5 DUP5 DUP5 ADD GT ISZERO PUSH2 0x9D9 JUMPI PUSH2 0x9D8 PUSH2 0x8D9 JUMP JUMPDEST JUMPDEST PUSH2 0x9E4 DUP5 DUP3 DUP6 PUSH2 0x99B JUMP JUMPDEST POP SWAP4 SWAP3 POP POP POP JUMP JUMPDEST PUSH1 0x0 DUP3 PUSH1 0x1F DUP4 ADD SLT PUSH2 0xA01 JUMPI PUSH2 0xA00 PUSH2 0x8D4 JUMP JUMPDEST JUMPDEST DUP2 CALLDATALOAD PUSH2 0xA11 DUP5 DUP3 PUSH1 0x20 DUP7 ADD PUSH2 0x9AA JUMP JUMPDEST SWAP2 POP POP SWAP3 SWAP2 POP POP JUMP JUMPDEST PUSH1 0x0 DUP1 PUSH1 0x0 DUP1 PUSH1 0x0 PUSH1 0xA0 DUP7 DUP9 SUB SLT ISZERO PUSH2 0xA36 JUMPI PUSH2 0xA35 PUSH2 0x7F4 JUMP JUMPDEST JUMPDEST PUSH1 0x0 PUSH2 0xA44 DUP9 DUP3 DUP10 ADD PUSH2 0x8BF JUMP JUMPDEST SWAP6 POP POP PUSH1 0x20 DUP7 ADD CALLDATALOAD PUSH8 0xFFFFFFFFFFFFFFFF DUP2 GT ISZERO PUSH2 0xA65 JUMPI PUSH2 0xA64 PUSH2 0x7F9 JUMP JUMPDEST JUMPDEST PUSH2 0xA71 DUP9 DUP3 DUP10 ADD PUSH2 0x9EC JUMP JUMPDEST SWAP5 POP POP PUSH1 0x40 PUSH2 0xA82 DUP9 DUP3 DUP10 ADD PUSH2 0x815 JUMP JUMPDEST SWAP4 POP POP PUSH1 0x60 PUSH2 0xA93 DUP9 DUP3 DUP10 ADD PUSH2 0x815 JUMP JUMPDEST SWAP3 POP POP PUSH1 0x80 PUSH2 0xAA4 DUP9 DUP3 DUP10 ADD PUSH2 0x815 JUMP JUMPDEST SWAP2 POP POP SWAP3 SWAP6 POP SWAP3 SWAP6 SWAP1 SWAP4 POP JUMP JUMPDEST PUSH1 0x0 PUSH1 0x20 DUP3 ADD SWAP1 POP PUSH2 0xAC6 PUSH1 0x0 DUP4 ADD DUP5 PUSH2 0x7A3 JUMP JUMPDEST SWAP3 SWAP2 POP POP JUMP JUMPDEST PUSH1 0x0 PUSH1 0x20 DUP3 DUP5 SUB SLT ISZERO PUSH2 0xAE2 JUMPI PUSH2 0xAE1 PUSH2 0x7F4 JUMP JUMPDEST JUMPDEST PUSH1 0x0 PUSH2 0xAF0 DUP5 DUP3 DUP6 ADD PUSH2 0x8BF JUMP JUMPDEST SWAP2 POP POP SWAP3 SWAP2 POP POP JUMP JUMPDEST PUSH1 0x0 DUP2 MLOAD SWAP1 POP SWAP2 SWAP1 POP JUMP JUMPDEST PUSH1 0x0 DUP3 DUP3 MSTORE PUSH1 0x20 DUP3 ADD SWAP1 POP SWAP3 SWAP2 POP POP JUMP JUMPDEST PUSH1 0x0 JUMPDEST DUP4 DUP2 LT ISZERO PUSH2 0xB33 JUMPI DUP1 DUP3 ADD MLOAD DUP2 DUP5 ADD MSTORE PUSH1 0x20 DUP2 ADD SWAP1 POP PUSH2 0xB18 JUMP JUMPDEST DUP4 DUP2 GT ISZERO PUSH2 0xB42 JUMPI PUSH1 0x0 DUP5 DUP5 ADD MSTORE JUMPDEST POP POP POP POP JUMP JUMPDEST PUSH1 0x0 PUSH2 0xB53 DUP3 PUSH2 0xAF9 JUMP JUMPDEST PUSH2 0xB5D DUP2 DUP6 PUSH2 0xB04 JUMP JUMPDEST SWAP4 POP PUSH2 0xB6D DUP2 DUP6 PUSH1 0x20 DUP7 ADD PUSH2 0xB15 JUMP JUMPDEST PUSH2 0xB76 DUP2 PUSH2 0x8DE JUMP JUMPDEST DUP5 ADD SWAP2 POP POP SWAP3 SWAP2 POP POP JUMP JUMPDEST PUSH1 0x0 PUSH1 0xA0 DUP3 ADD SWAP1 POP DUP2 DUP2 SUB PUSH1 0x0 DUP4 ADD MSTORE PUSH2 0xB9B DUP2 DUP9 PUSH2 0xB48 JUMP JUMPDEST SWAP1 POP PUSH2 0xBAA PUSH1 0x20 DUP4 ADD DUP8 PUSH2 0x7A3 JUMP JUMPDEST PUSH2 0xBB7 PUSH1 0x40 DUP4 ADD DUP7 PUSH2 0x7B2 JUMP JUMPDEST PUSH2 0xBC4 PUSH1 0x60 DUP4 ADD DUP6 PUSH2 0x7B2 JUMP JUMPDEST PUSH2 0xBD1 PUSH1 0x80 DUP4 ADD DUP5 PUSH2 0x7B2 JUMP JUMPDEST SWAP7 SWAP6 POP POP POP POP POP POP JUMP JUMPDEST PUSH1 0x0 PUSH1 0x20 DUP3 ADD SWAP1 POP PUSH2 0xBF0 PUSH1 0x0 DUP4 ADD DUP5 PUSH2 0x7B2 JUMP JUMPDEST SWAP3 SWAP2 POP POP JUMP JUMPDEST PUSH32 0x4F6E6C79206F776E65722063616E2077697468647261772066756E6473000000 PUSH1 0x0 DUP3 ADD MSTORE POP JUMP JUMPDEST PUSH1 0x0 PUSH2 0xC2C PUSH1 0x1D DUP4 PUSH2 0xB04 JUMP JUMPDEST SWAP2 POP PUSH2 0xC37 DUP3 PUSH2 0xBF6 JUMP JUMPDEST PUSH1 0x20 DUP3 ADD SWAP1 POP SWAP2 SWAP1 POP JUMP JUMPDEST PUSH1 0x0 PUSH1 0x20 DUP3 ADD SWAP1 POP DUP2 DUP2 SUB PUSH1 0x0 DUP4 ADD MSTORE PUSH2 0xC5B DUP2 PUSH2 0xC1F JUMP JUMPDEST SWAP1 POP SWAP2 SWAP1 POP JUMP JUMPDEST PUSH32 0x496E73756666696369656E742066756E64730000000000000000000000000000 PUSH1 0x0 DUP3 ADD MSTORE POP JUMP JUMPDEST PUSH1 0x0 PUSH2 0xC98 PUSH1 0x12 DUP4 PUSH2 0xB04 JUMP JUMPDEST SWAP2 POP PUSH2 0xCA3 DUP3 PUSH2 0xC62 JUMP JUMPDEST PUSH1 0x20 DUP3 ADD SWAP1 POP SWAP2 SWAP1 POP JUMP JUMPDEST PUSH1 0x0 PUSH1 0x20 DUP3 ADD SWAP1 POP DUP2 DUP2 SUB PUSH1 0x0 DUP4 ADD MSTORE PUSH2 0xCC7 DUP2 PUSH2 0xC8B JUMP JUMPDEST SWAP1 POP SWAP2 SWAP1 POP JUMP JUMPDEST PUSH1 0x0 PUSH2 0xCD9 DUP3 PUSH2 0x6E2 JUMP JUMPDEST SWAP2 POP PUSH2 0xCE4 DUP4 PUSH2 0x6E2 JUMP JUMPDEST SWAP3 POP DUP3 DUP3 LT ISZERO PUSH2 0xCF7 JUMPI PUSH2 0xCF6 PUSH2 0x6EC JUMP JUMPDEST JUMPDEST DUP3 DUP3 SUB SWAP1 POP SWAP3 SWAP2 POP POP JUMP JUMPDEST PUSH1 0x0 DUP2 SWAP1 POP SWAP2 SWAP1 POP JUMP JUMPDEST PUSH1 0x0 PUSH2 0xD27 PUSH2 0xD22 PUSH2 0xD1D DUP5 PUSH2 0x771 JUMP JUMPDEST PUSH2 0xD02 JUMP JUMPDEST PUSH2 0x771 JUMP JUMPDEST SWAP1 POP SWAP2 SWAP1 POP JUMP JUMPDEST PUSH1 0x0 PUSH2 0xD39 DUP3 PUSH2 0xD0C JUMP JUMPDEST SWAP1 POP SWAP2 SWAP1 POP JUMP JUMPDEST PUSH1 0x0 PUSH2 0xD4B DUP3 PUSH2 0xD2E JUMP JUMPDEST SWAP1 POP SWAP2 SWAP1 POP JUMP JUMPDEST PUSH2 0xD5B DUP2 PUSH2 0xD40 JUMP JUMPDEST DUP3 MSTORE POP POP JUMP JUMPDEST PUSH1 0x0 PUSH1 0x60 DUP3 ADD SWAP1 POP PUSH2 0xD76 PUSH1 0x0 DUP4 ADD DUP7 PUSH2 0x7A3 JUMP JUMPDEST PUSH2 0xD83 PUSH1 0x20 DUP4 ADD DUP6 PUSH2 0xD52 JUMP JUMPDEST PUSH2 0xD90 PUSH1 0x40 DUP4 ADD DUP5 PUSH2 0x7B2 JUMP JUMPDEST SWAP5 SWAP4 POP POP POP POP JUMP JUMPDEST PUSH32 0x4164647265737320697320616C72656164792061646465642100000000000000 PUSH1 0x0 DUP3 ADD MSTORE POP JUMP JUMPDEST PUSH1 0x0 PUSH2 0xDCE PUSH1 0x19 DUP4 PUSH2 0xB04 JUMP JUMPDEST SWAP2 POP PUSH2 0xDD9 DUP3 PUSH2 0xD98 JUMP JUMPDEST PUSH1 0x20 DUP3 ADD SWAP1 POP SWAP2 SWAP1 POP JUMP JUMPDEST PUSH1 0x0 PUSH1 0x20 DUP3 ADD SWAP1 POP DUP2 DUP2 SUB PUSH1 0x0 DUP4 ADD MSTORE PUSH2 0xDFD DUP2 PUSH2 0xDC1 JUMP JUMPDEST SWAP1 POP SWAP2 SWAP1 POP JUMP JUMPDEST PUSH32 0x4E487B7100000000000000000000000000000000000000000000000000000000 PUSH1 0x0 MSTORE PUSH1 0x22 PUSH1 0x4 MSTORE PUSH1 0x24 PUSH1 0x0 REVERT JUMPDEST PUSH1 0x0 PUSH1 0x2 DUP3 DIV SWAP1 POP PUSH1 0x1 DUP3 AND DUP1 PUSH2 0xE4B JUMPI PUSH1 0x7F DUP3 AND SWAP2 POP JUMPDEST PUSH1 0x20 DUP3 LT DUP2 EQ ISZERO PUSH2 0xE5F JUMPI PUSH2 0xE5E PUSH2 0xE04 JUMP JUMPDEST JUMPDEST POP SWAP2 SWAP1 POP JUMP INVALID LOG2 PUSH5 0x6970667358 0x22 SLT KECCAK256 0xB3 0xA6 DUP8 MLOAD 0xB4 0xFC 0x1F PUSH22 0xE2D6505B2DACB2C56346A7349BA757F5E90EEAEC6751 JUMPI 0xF PUSH5 0x736F6C6343 STOP ADDMOD MULMOD STOP CALLER "
        },
        "methodIdentifiers": {
          "Admin()": "ff1b636d",
          "addChild(address,string,uint256,uint256,uint256)": "bc67682a",
          "children(address)": "f0018da7",
          "getChildAddress()": "bcb1c3a9",
          "getChildBalance()": "fd5555d9",
          "withdraw(uint256,address)": "00f714ce"
        }
      }
    }
  }
}