{
  "_format": "hh-sol-artifact-1",
  "contractName": "CryptoInvest",
  "sourceName": "contracts/CryptoOcean.sol",
  "abi": [
    {
      "anonymous": false,
      "inputs": [
        {
          "indexed": false,
          "internalType": "address",
          "name": "_from",
          "type": "address"
        },
        {
          "indexed": false,
          "internalType": "uint256",
          "name": "_amount",
          "type": "uint256"
        }
      ],
      "name": "TransferReceived",
      "type": "event"
    },
    {
      "anonymous": false,
      "inputs": [
        {
          "indexed": false,
          "internalType": "address",
          "name": "_from",
          "type": "address"
        },
        {
          "indexed": false,
          "internalType": "address",
          "name": "_destAddr",
          "type": "address"
        },
        {
          "indexed": false,
          "internalType": "uint256",
          "name": "_amount",
          "type": "uint256"
        }
      ],
      "name": "TransferSent",
      "type": "event"
    },
    {
      "inputs": [],
      "name": "Admin",
      "outputs": [
        {
          "internalType": "address",
          "name": "",
          "type": "address"
        }
      ],
      "stateMutability": "view",
      "type": "function"
    },
    {
      "inputs": [
        {
          "internalType": "address",
          "name": "addr",
          "type": "address"
        },
        {
          "internalType": "string",
          "name": "name",
          "type": "string"
        },
        {
          "internalType": "uint256",
          "name": "balance",
          "type": "uint256"
        },
        {
          "internalType": "uint256",
          "name": "idNumber",
          "type": "uint256"
        },
        {
          "internalType": "uint256",
          "name": "withdrawDate",
          "type": "uint256"
        }
      ],
      "name": "addChild",
      "outputs": [],
      "stateMutability": "nonpayable",
      "type": "function"
    },
    {
      "inputs": [
        {
          "internalType": "address",
          "name": "",
          "type": "address"
        }
      ],
      "name": "children",
      "outputs": [
        {
          "internalType": "string",
          "name": "name",
          "type": "string"
        },
        {
          "internalType": "address",
          "name": "addr",
          "type": "address"
        },
        {
          "internalType": "uint256",
          "name": "idNumber",
          "type": "uint256"
        },
        {
          "internalType": "uint256",
          "name": "balance",
          "type": "uint256"
        },
        {
          "internalType": "uint256",
          "name": "withdrawDate",
          "type": "uint256"
        }
      ],
      "stateMutability": "view",
      "type": "function"
    },
    {
      "inputs": [],
      "name": "getChildAddress",
      "outputs": [
        {
          "internalType": "address",
          "name": "",
          "type": "address"
        }
      ],
      "stateMutability": "view",
      "type": "function"
    },
    {
      "inputs": [],
      "name": "getChildBalance",
      "outputs": [
        {
          "internalType": "uint256",
          "name": "",
          "type": "uint256"
        }
      ],
      "stateMutability": "view",
      "type": "function"
    },
    {
      "inputs": [
        {
          "internalType": "uint256",
          "name": "amount",
          "type": "uint256"
        },
        {
          "internalType": "address payable",
          "name": "destAddr",
          "type": "address"
        }
      ],
      "name": "withdraw",
      "outputs": [],
      "stateMutability": "nonpayable",
      "type": "function"
    },
    {
      "stateMutability": "payable",
      "type": "receive"
    }
  ],
  "bytecode": "0x60806040526100126100c360201b60201c565b60015561002361011460201b60201c565b600260006101000a81548173ffffffffffffffffffffffffffffffffffffffff021916908373ffffffffffffffffffffffffffffffffffffffff16021790555061007161018560201b60201c565b600360006101000a81548173ffffffffffffffffffffffffffffffffffffffff021916908373ffffffffffffffffffffffffffffffffffffffff1602179055503480156100bd57600080fd5b50610192565b60008060008060008373ffffffffffffffffffffffffffffffffffffffff1673ffffffffffffffffffffffffffffffffffffffff168152602001908152602001600020905080600301549250505090565b60008060008060008373ffffffffffffffffffffffffffffffffffffffff1673ffffffffffffffffffffffffffffffffffffffff16815260200190815260200160002090508060010160009054906101000a900473ffffffffffffffffffffffffffffffffffffffff169250505090565b6000803390508091505090565b610e9b806101a16000396000f3fe6080604052600436106100585760003560e01c8062f714ce146100b6578063bc67682a146100df578063bcb1c3a914610108578063f0018da714610133578063fd5555d914610174578063ff1b636d1461019f576100b1565b366100b157346001600082825461006f919061071b565b925050819055507ff1b03f708b9c39f453fe3f0cef84164c7d6f7df836df0796e1e9c2bce6ee397e33346040516100a79291906107c1565b60405180910390a1005b600080fd5b3480156100c257600080fd5b506100dd60048036038101906100d89190610868565b6101ca565b005b3480156100eb57600080fd5b5061010660048036038101906101019190610a1a565b61033e565b005b34801561011457600080fd5b5061011d610492565b60405161012a9190610ab1565b60405180910390f35b34801561013f57600080fd5b5061015a60048036038101906101559190610acc565b610503565b60405161016b959493929190610b81565b60405180910390f35b34801561018057600080fd5b506101896105e1565b6040516101969190610bdb565b60405180910390f35b3480156101ab57600080fd5b506101b4610632565b6040516101c19190610ab1565b60405180910390f35b600260009054906101000a900473ffffffffffffffffffffffffffffffffffffffff1673ffffffffffffffffffffffffffffffffffffffff163373ffffffffffffffffffffffffffffffffffffffff161461025a576040517f08c379a000000000000000000000000000000000000000000000000000000000815260040161025190610c42565b60405180910390fd5b60015482111561029f576040517f08c379a000000000000000000000000000000000000000000000000000000000815260040161029690610cae565b60405180910390fd5b8073ffffffffffffffffffffffffffffffffffffffff166108fc839081150290604051600060405180830381858888f193505050501580156102e5573d6000803e3d6000fd5b5081600160008282546102f89190610cce565b925050819055507ffda3a3e0e1479b43cb1c701f7576187f4c4ad80768d627387e00184302f7d88e33828460405161033293929190610d61565b60405180910390a15050565b60008060008773ffffffffffffffffffffffffffffffffffffffff1673ffffffffffffffffffffffffffffffffffffffff1681526020019081526020016000209050600073ffffffffffffffffffffffffffffffffffffffff168160010160009054906101000a900473ffffffffffffffffffffffffffffffffffffffff1673ffffffffffffffffffffffffffffffffffffffff1614610413576040517f08c379a000000000000000000000000000000000000000000000000000000000815260040161040a90610de4565b60405180910390fd5b8381600301819055508481600001908051906020019061043492919061063f565b50858160010160006101000a81548173ffffffffffffffffffffffffffffffffffffffff021916908373ffffffffffffffffffffffffffffffffffffffff160217905550828160020181905550818160040181905550505050505050565b60008060008060008373ffffffffffffffffffffffffffffffffffffffff1673ffffffffffffffffffffffffffffffffffffffff16815260200190815260200160002090508060010160009054906101000a900473ffffffffffffffffffffffffffffffffffffffff169250505090565b600060205280600052604060002060009150905080600001805461052690610e33565b80601f016020809104026020016040519081016040528092919081815260200182805461055290610e33565b801561059f5780601f106105745761010080835404028352916020019161059f565b820191906000526020600020905b81548152906001019060200180831161058257829003601f168201915b5050505050908060010160009054906101000a900473ffffffffffffffffffffffffffffffffffffffff16908060020154908060030154908060040154905085565b60008060008060008373ffffffffffffffffffffffffffffffffffffffff1673ffffffffffffffffffffffffffffffffffffffff168152602001908152602001600020905080600301549250505090565b6000803390508091505090565b82805461064b90610e33565b90600052602060002090601f01602090048101928261066d57600085556106b4565b82601f1061068657805160ff19168380011785556106b4565b828001600101855582156106b4579182015b828111156106b3578251825591602001919060010190610698565b5b5090506106c191906106c5565b5090565b5b808211156106de5760008160009055506001016106c6565b5090565b6000819050919050565b7f4e487b7100000000000000000000000000000000000000000000000000000000600052601160045260246000fd5b6000610726826106e2565b9150610731836106e2565b9250827fffffffffffffffffffffffffffffffffffffffffffffffffffffffffffffffff03821115610766576107656106ec565b5b828201905092915050565b600073ffffffffffffffffffffffffffffffffffffffff82169050919050565b600061079c82610771565b9050919050565b6107ac81610791565b82525050565b6107bb816106e2565b82525050565b60006040820190506107d660008301856107a3565b6107e360208301846107b2565b9392505050565b6000604051905090565b600080fd5b600080fd5b610807816106e2565b811461081257600080fd5b50565b600081359050610824816107fe565b92915050565b600061083582610771565b9050919050565b6108458161082a565b811461085057600080fd5b50565b6000813590506108628161083c565b92915050565b6000806040838503121561087f5761087e6107f4565b5b600061088d85828601610815565b925050602061089e85828601610853565b9150509250929050565b6108b181610791565b81146108bc57600080fd5b50565b6000813590506108ce816108a8565b92915050565b600080fd5b600080fd5b6000601f19601f8301169050919050565b7f4e487b7100000000000000000000000000000000000000000000000000000000600052604160045260246000fd5b610927826108de565b810181811067ffffffffffffffff82111715610946576109456108ef565b5b80604052505050565b60006109596107ea565b9050610965828261091e565b919050565b600067ffffffffffffffff821115610985576109846108ef565b5b61098e826108de565b9050602081019050919050565b82818337600083830152505050565b60006109bd6109b88461096a565b61094f565b9050828152602081018484840111156109d9576109d86108d9565b5b6109e484828561099b565b509392505050565b600082601f830112610a0157610a006108d4565b5b8135610a118482602086016109aa565b91505092915050565b600080600080600060a08688031215610a3657610a356107f4565b5b6000610a44888289016108bf565b955050602086013567ffffffffffffffff811115610a6557610a646107f9565b5b610a71888289016109ec565b9450506040610a8288828901610815565b9350506060610a9388828901610815565b9250506080610aa488828901610815565b9150509295509295909350565b6000602082019050610ac660008301846107a3565b92915050565b600060208284031215610ae257610ae16107f4565b5b6000610af0848285016108bf565b91505092915050565b600081519050919050565b600082825260208201905092915050565b60005b83811015610b33578082015181840152602081019050610b18565b83811115610b42576000848401525b50505050565b6000610b5382610af9565b610b5d8185610b04565b9350610b6d818560208601610b15565b610b76816108de565b840191505092915050565b600060a0820190508181036000830152610b9b8188610b48565b9050610baa60208301876107a3565b610bb760408301866107b2565b610bc460608301856107b2565b610bd160808301846107b2565b9695505050505050565b6000602082019050610bf060008301846107b2565b92915050565b7f4f6e6c79206f776e65722063616e2077697468647261772066756e6473000000600082015250565b6000610c2c601d83610b04565b9150610c3782610bf6565b602082019050919050565b60006020820190508181036000830152610c5b81610c1f565b9050919050565b7f496e73756666696369656e742066756e64730000000000000000000000000000600082015250565b6000610c98601283610b04565b9150610ca382610c62565b602082019050919050565b60006020820190508181036000830152610cc781610c8b565b9050919050565b6000610cd9826106e2565b9150610ce4836106e2565b925082821015610cf757610cf66106ec565b5b828203905092915050565b6000819050919050565b6000610d27610d22610d1d84610771565b610d02565b610771565b9050919050565b6000610d3982610d0c565b9050919050565b6000610d4b82610d2e565b9050919050565b610d5b81610d40565b82525050565b6000606082019050610d7660008301866107a3565b610d836020830185610d52565b610d9060408301846107b2565b949350505050565b7f4164647265737320697320616c72656164792061646465642100000000000000600082015250565b6000610dce601983610b04565b9150610dd982610d98565b602082019050919050565b60006020820190508181036000830152610dfd81610dc1565b9050919050565b7f4e487b7100000000000000000000000000000000000000000000000000000000600052602260045260246000fd5b60006002820490506001821680610e4b57607f821691505b60208210811415610e5f57610e5e610e04565b5b5091905056fea2646970667358221220b3a68751b4fc1f75e2d6505b2dacb2c56346a7349ba757f5e90eeaec6751570f64736f6c63430008090033",
  "linkReferences": {},
  "deployedLinkReferences": {}
}